{"abi":[{"type":"constructor","inputs":[{"name":"_escrow","type":"address","internalType":"address"},{"name":"_verifier","type":"address","internalType":"address"}],"stateMutability":"nonpayable"},{"type":"function","name":"BUYER_DEPOSIT_MULTIPLIER","inputs":[],"outputs":[{"name":"","type":"uint256","internalType":"uint256"}],"stateMutability":"view"},{"type":"function","name":"CLAIM_WINDOW","inputs":[],"outputs":[{"name":"","type":"uint64","internalType":"uint64"}],"stateMutability":"view"},{"type":"function","name":"LISTING_FEE_BPS","inputs":[],"outputs":[{"name":"","type":"uint256","internalType":"uint256"}],"stateMutability":"view"},{"type":"function","name":"MAX_TRANSFER_DELAY","inputs":[],"outputs":[{"name":"","type":"uint64","internalType":"uint64"}],"stateMutability":"view"},{"type":"function","name":"SUCCESS_FEE_BPS","inputs":[],"outputs":[{"name":"","type":"uint256","internalType":"uint256"}],"stateMutability":"view"},{"type":"function","name":"claimReservation","inputs":[{"name":"orderId","type":"bytes32","internalType":"bytes32"},{"name":"proof","type":"tuple","internalType":"struct ReservationVerifier.BookingProof","components":[{"name":"newReservationId","type":"string","internalType":"string"},{"name":"bookingTime","type":"uint64","internalType":"uint64"},{"name":"restaurantName","type":"string","internalType":"string"},{"name":"emailHash","type":"bytes32","internalType":"bytes32"},{"name":"proof","type":"uint256[8]","internalType":"uint256[8]"}]}],"outputs":[],"stateMutability":"nonpayable"},{"type":"function","name":"createOrder","inputs":[{"name":"listingId","type":"bytes32","internalType":"bytes32"},{"name":"coordinationTime","type":"uint64","internalType":"uint64"}],"outputs":[],"stateMutability":"payable"},{"type":"function","name":"escrow","inputs":[],"outputs":[{"name":"","type":"address","internalType":"contract ReservationEscrow"}],"stateMutability":"view"},{"type":"function","name":"executeCancellation","inputs":[{"name":"orderId","type":"bytes32","internalType":"bytes32"},{"name":"proof","type":"tuple","internalType":"struct ReservationVerifier.CancellationProof","components":[{"name":"originalReservationId","type":"string","internalType":"string"},{"name":"cancellationTime","type":"uint64","internalType":"uint64"},{"name":"restaurantName","type":"string","internalType":"string"},{"name":"emailHash","type":"bytes32","internalType":"bytes32"},{"name":"proof","type":"uint256[8]","internalType":"uint256[8]"}]}],"outputs":[],"stateMutability":"nonpayable"},{"type":"function","name":"listReservation","inputs":[{"name":"proof","type":"tuple","internalType":"struct ReservationVerifier.ReservationProof","components":[{"name":"platform","type":"string","internalType":"string"},{"name":"reservationId","type":"string","internalType":"string"},{"name":"restaurantName","type":"string","internalType":"string"},{"name":"reservationTime","type":"uint64","internalType":"uint64"},{"name":"partySize","type":"uint8","internalType":"uint8"},{"name":"emailHash","type":"bytes32","internalType":"bytes32"},{"name":"proof","type":"uint256[8]","internalType":"uint256[8]"}]},{"name":"price","type":"uint256","internalType":"uint256"},{"name":"expiry","type":"uint64","internalType":"uint64"}],"outputs":[],"stateMutability":"payable"},{"type":"function","name":"verifier","inputs":[],"outputs":[{"name":"","type":"address","internalType":"contract ReservationVerifier"}],"stateMutability":"view"},{"type":"event","name":"CoordinationBegun","inputs":[{"name":"orderId","type":"bytes32","indexed":true,"internalType":"bytes32"},{"name":"coordinationTime","type":"uint64","indexed":false,"internalType":"uint64"}],"anonymous":false},{"type":"event","name":"OrderCreated","inputs":[{"name":"orderId","type":"bytes32","indexed":true,"internalType":"bytes32"},{"name":"listingId","type":"bytes32","indexed":false,"internalType":"bytes32"},{"name":"buyer","type":"address","indexed":false,"internalType":"address"}],"anonymous":false},{"type":"event","name":"ReservationCancelled","inputs":[{"name":"orderId","type":"bytes32","indexed":true,"internalType":"bytes32"},{"name":"proofHash","type":"bytes32","indexed":false,"internalType":"bytes32"}],"anonymous":false},{"type":"event","name":"ReservationClaimed","inputs":[{"name":"orderId","type":"bytes32","indexed":true,"internalType":"bytes32"},{"name":"proofHash","type":"bytes32","indexed":false,"internalType":"bytes32"}],"anonymous":false},{"type":"event","name":"ReservationListed","inputs":[{"name":"listingId","type":"bytes32","indexed":true,"internalType":"bytes32"},{"name":"seller","type":"address","indexed":false,"internalType":"address"},{"name":"price","type":"uint256","indexed":false,"internalType":"uint256"}],"anonymous":false},{"type":"event","name":"SettlementCompleted","inputs":[{"name":"orderId","type":"bytes32","indexed":true,"internalType":"bytes32"},{"name":"outcome","type":"uint8","indexed":false,"internalType":"enum ReservationEscrow.SettlementType"}],"anonymous":false}],"bytecode":{"object":"0x608034608557601f61180e38819003918201601f19168301916001600160401b038311848410176089578084926040948552833981010312608557604b6020604583609d565b9201609d565b5f80546001600160a01b039384166001600160a01b0319918216179091556001805492909316911617905560405161175d90816100b18239f35b5f80fd5b634e487b7160e01b5f52604160045260245ffd5b51906001600160a01b038216820360855756fe6080806040526004361015610012575f80fd5b5f905f3560e01c9081630d93457a1461123a5750806323560d0d14610d0d5780632b7ac3f314610ce45780633be01fb514610a8d57806343dd8894146107b85780636f3fc771146101155780638045b3bd146100f85780639f34fc80146100f8578063a111812c146100dc578063d9ea227c146100c05763e2fdcc1714610097575f80fd5b346100bd57806003193601126100bd57546040516001600160a01b039091168152602090f35b80fd5b50346100bd57806003193601126100bd57602060405160c88152f35b50346100bd57806003193601126100bd57602060405160968152f35b50346100bd57806003193601126100bd57602060405161012c8152f35b50346100bd5761012436611253565b82546040516309c3f1e960e41b8152600481018490526001600160a01b039091169060c081602481855afa80156105e257858692879261078d575b506001600160a01b0316330361075c576005811015610748579061018d60026001600160401b0393146113e1565b16421161070c5760015460405163763a3c6760e01b81526020600482018190526001600160a01b039092169181806101c86024820188611485565b0381855afa9081156107015786916106e2575b50156106a557838552600260205260408520906040519160a083018381106001600160401b038211176106915760405261021481611663565b83526001600160401b03600182015416906020840191825261023860028201611663565b916040850192835260038201549260608601938452604051926004849101908b905b6008821061067b5750505082916102d09161027c6101006102b69997966112a0565b608086019384526001600160401b0360405198899763d76e643f60e01b8952606060048a01525161018060648a01526101e4890190611703565b9251166084870152518582036063190160a4870152611703565b915160c4840152518860e484015b600882106106615750505091818061030460209560031983820301602484015289611485565b601e604483015203915afa9081156105e2578591610632575b50156105ed576040516309c3f1e960e41b81526004810184905260c081602481855afa9081156105e2578592869187936105a7575b508660405192633062e36d60e21b84528060048501528184602481865afa9283156104ef5782948394610577575b50803b1561054f5782809160448b60405194859384926312d35eed60e01b84526004840152600360248401525af190811561056c578391610553575b505081546001600160a01b031690813b1561054f578291604483926040519485938492632d361d2d60e11b84526004840152600360248401525af180156104ef57610536575b505061012c810281810461012c1482151715610522576127109004918282039282841161050e578880969594819482948394849214610504575b6001600160a01b031690f1156104ef57828092918192829082156104fa575b6001600160a01b031690f1156104ef5760207f0149623ddc392da4329fa6a801ca7a6990fdbd1abe0fe4d5a714e4c00f7a149e91837fdbc5f26a2f97ffc877dc5d34e5fcdb9bf23cef5231852db7ef7842efe688bd8a83604051888152a26040516104e2816104d4858201948686526040830190611485565b03601f1981018352826112a0565b519020604051908152a280f35b6040513d84823e3d90fd5b6108fc915061045b565b6108fc915061043c565b634e487b7160e01b89526011600452602489fd5b634e487b7160e01b88526011600452602488fd5b81610540916112a0565b61054b57865f610402565b8680fd5b8280fd5b8161055d916112a0565b61056857815f6103bc565b5080fd5b6040513d85823e3d90fd5b9093506105979194503d8084833e61058f81836112a0565b810190611335565b505050509491905093925f610380565b915092506105cd915060c03d60c0116105db575b6105c581836112a0565b8101906112e9565b5093949193505f9050610352565b503d6105bb565b6040513d87823e3d90fd5b60405162461bcd60e51b815260206004820152601c60248201527f5472616e7366657220766572696669636174696f6e206661696c6564000000006044820152606490fd5b610654915060203d60201161065a575b61064c81836112a0565b81019061141c565b5f61031d565b503d610642565b8251815286945060209283019260019290920191016102de565b600160208192855481520193019101909161025a565b634e487b7160e01b88526041600452602488fd5b60405162461bcd60e51b815260206004820152601560248201527424b73b30b634b2103137b7b5b4b73390383937b7b360591b6044820152606490fd5b6106fb915060203d60201161065a5761064c81836112a0565b5f6101db565b6040513d88823e3d90fd5b60405162461bcd60e51b815260206004820152601460248201527310db185a5b481dda5b991bddc8195e1c1a5c995960621b6044820152606490fd5b634e487b7160e01b86526021600452602486fd5b60405162461bcd60e51b81526020600482015260096024820152682737ba10313abcb2b960b91b6044820152606490fd5b9150506107a9915060c03d60c0116105db576105c581836112a0565b9492509250509091905f61015f565b5060403660031901126100bd576004356024356001600160401b03811680910361054f578254604051633062e36d60e21b8152600481018490526001600160a01b0390911692908481602481875afa80156105e25785918691610a69575b50600481101561074857610a2f57609681029080820460961490151715610a1b5760649004928334106109df576040516020810190838252336040820152426060820152606081526108696080826112a0565b5190209361012c84016001600160401b0381116109cb579082918794933b156109c75760c48592836001600160401b03956040519687958694638477aff360e01b86528d60048701523360248701528a604487015260648601528b60848601521660a48401525af190811561056c5783916109b2575b505081546001600160a01b0316803b1561054f57828091604460405180968193632d361d2d60e11b8352876004840152600160248401525af19283156109a5578593610986575b5050916020917fd8fca2697bd84b8351329d1a59090f8366ff99c417e8a51d06babe2cb2f1d12d60407fd670c613ca5da4f8584b167dfbdc4c2444f4ba70cfa5f76a0dd7d7ba079404489581519081523386820152a2604051908152a280f35b8192935090610994916112a0565b6109a1578290845f610926565b8380fd5b50604051903d90823e3d90fd5b816109bc916112a0565b61056857815f6108df565b8480fd5b634e487b7160e01b87526011600452602487fd5b60405162461bcd60e51b8152602060048201526014602482015273125b9cdd59999a58da595b9d0819195c1bdcda5d60621b6044820152606490fd5b634e487b7160e01b85526011600452602485fd5b60405162461bcd60e51b81526020600482015260126024820152714c697374696e67206e6f742061637469766560701b6044820152606490fd5b9050610a7f91503d8087833e61058f81836112a0565b50945050509050905f610816565b5060603660031901126100bd576004356001600160401b0381116105685780600401906101c0600319823603011261054f57602435906044356001600160401b0381168091036109c757600154604051630281c66360e61b81529060209082906001600160a01b03168180610b058a600483016115b0565b03915afa801561070157610b20918791610cc5575b506114f4565b60c8830283810460c81484151715610cb15761271090043410610c6c57610b86610b72610b51602488950187611530565b92906040519283916020830195338752606060408501526080840191611465565b42606083015203601f1981018352826112a0565b5190209360018060a01b0383541691610bb86040516020810190610bae816104d487856115b0565b5190209280611530565b939092813b15610c68578588610c0f829660405198899788968795633967dd1960e21b8752600487015233602487015260448601528c60648601528c608486015260a485015260e060c485015260e4840191611465565b03925af180156104ef57610c53575b505060407f394ff32c2336158375a8f758321d65fb6367187f84b9c043eaa74ab1fdb5e743918151903382526020820152a280f35b81610c5d916112a0565b61054f57825f610c1e565b8580fd5b60405162461bcd60e51b815260206004820152601860248201527f496e73756666696369656e74206c697374696e672066656500000000000000006044820152606490fd5b634e487b7160e01b86526011600452602486fd5b610cde915060203d60201161065a5761064c81836112a0565b5f610b1a565b50346100bd57806003193601126100bd576001546040516001600160a01b039091168152602090f35b5034610fbb57610d1c36611253565b5f546040516309c3f1e960e41b8152600481018490526001600160a01b039091169060c081602481855afa918215610fb0575f80925f9461120c575b505f90602460405180948193633062e36d60e21b835260048301525afa908115610fb0575f916111ec575b506001600160a01b031633036111ba5760058210156111a657610db060016001600160401b0393146113e1565b1680421015908161116d575b50156111395760015460405163017d4bfb60e01b8152602060048201819052909182906001600160a01b03168180610df76024820188611485565b03915afa8015610fb057610e11915f91610cc557506114f4565b815f52600260205260405f20610e278280611530565b906001600160401b038211611083578190610e428454611562565b601f8111611109575b505f90601f83116001146110a2575f92611097575b50508160011b915f199060031b1c19161781555b6001810160208301356001600160401b038116809103610fbb57815467ffffffffffffffff191617905560028101610eaf6040840184611530565b906001600160401b038211611083578190610eca8454611562565b601f8111611048575b505f90601f8311600114610fe1575f92610fd6575b50508160011b915f199060031b1c19161790555b60608201356003820155608082015f5b60088110610fbf5750505f546001600160a01b03169050803b15610fbb575f80916044604051809481936312d35eed60e01b8352886004840152600260248401525af18015610fb057610f9a575b5060207ffd31b25d72f0862e2b17f6e5f10c728f0e44dde4dab6f21b5cea8e6e510fc298916040516104e2816104d4858201948686526040830190611485565b610fa79193505f906112a0565b5f916020610f5a565b6040513d5f823e3d90fd5b5f80fd5b600190602083359301926004828601015501610f0c565b013590505f80610ee8565b909150601f19831691845f5260205f20925f5b8181106110305750908460019594939210611017575b505050811b019055610efc565b01355f19600384901b60f8161c191690555f808061100a565b91936020600181928787013581550195019201610ff4565b61107390855f5260205f20601f850160051c81019160208610611079575b601f0160051c019061159a565b5f610ed3565b9091508190611066565b634e487b7160e01b5f52604160045260245ffd5b013590505f80610e60565b909150601f19831691845f5260205f20925f5b8181106110f157509084600195949392106110d8575b505050811b018155610e74565b01355f19600384901b60f8161c191690555f80806110cb565b919360206001819287870135815501950192016110b5565b61113390855f5260205f20601f850160051c8101916020861061107957601f0160051c019061159a565b5f610e4b565b60405162461bcd60e51b815260206004820152600c60248201526b57726f6e672074696d696e6760a01b6044820152606490fd5b601e9150016001600160401b038111611192576001600160401b03164211155f610dbc565b634e487b7160e01b5f52601160045260245ffd5b634e487b7160e01b5f52602160045260245ffd5b60405162461bcd60e51b815260206004820152600a6024820152692737ba1039b2b63632b960b11b6044820152606490fd5b61120091503d805f833e61058f81836112a0565b5050505050505f610d83565b90505f935061122b91925060c03d60c0116105db576105c581836112a0565b9691959450909150610d589050565b34610fbb575f366003190112610fbb5780601e60209252f35b906040600319830112610fbb5760043591602435906001600160401b038211610fbb57610180908290036003190112610fbb5760040190565b35906001600160401b0382168203610fbb57565b90601f801991011681019081106001600160401b0382111761108357604052565b51906001600160a01b0382168203610fbb57565b51906001600160401b0382168203610fbb57565b91908260c0910312610fbb576112fe826112c1565b91602081015191604082015191611317606082016112d5565b9160a0611326608084016112d5565b9201516005811015610fbb5790565b60e081830312610fbb57611348816112c1565b92602082015192604083015192606081015192611367608083016112d5565b9260a08301516004811015610fbb579260c0810151906001600160401b038211610fbb570181601f82011215610fbb578051906001600160401b03821161108357604051926113c0601f8401601f1916602001856112a0565b82845260208383010111610fbb57815f9260208093018386015e8301015290565b156113e857565b60405162461bcd60e51b815260206004820152600c60248201526b57726f6e672073746174757360a01b6044820152606490fd5b90816020910312610fbb57518015158103610fbb5790565b9035601e1982360301811215610fbb5701602081359101916001600160401b038211610fbb578136038313610fbb57565b908060209392818452848401375f828201840152601f01601f1916010190565b90610100906080806114e26114ad61149d8780611434565b6101808752610180870191611465565b6001600160401b036114c16020890161128c565b1660208601526114d46040880188611434565b908683036040880152611465565b94606081013560608501520191013790565b156114fb57565b60405162461bcd60e51b815260206004820152600d60248201526c24b73b30b634b210383937b7b360991b6044820152606490fd5b903590601e1981360301821215610fbb57018035906001600160401b038211610fbb57602001918136038313610fbb57565b90600182811c92168015611590575b602083101461157c57565b634e487b7160e01b5f52602260045260245ffd5b91607f1691611571565b8181106115a5575050565b5f815560010161159a565b90602082526116196115fa6115db6115c88480611434565b6101c060208801526101e0870191611465565b6115e86020850185611434565b868303601f1901604088015290611465565b6116076040840184611434565b858303601f1901606087015290611465565b916001600160401b0361162e6060840161128c565b16608082015260808201359160ff8316809303610fbb5760c060e0916101009460a085015260a0810135828501520191013790565b9060405191825f82549261167684611562565b80845293600181169081156116e1575060011461169d575b5061169b925003836112a0565b565b90505f9291925260205f20905f915b8183106116c557505090602061169b928201015f61168e565b60209193508060019154838589010152019101909184926116ac565b90506020925061169b94915060ff191682840152151560051b8201015f61168e565b805180835260209291819084018484015e5f828201840152601f01601f191601019056fea264697066735822122073f31dc3648ef83ec003708def25d584c1c55df474134230168791c20ab8f3fd64736f6c634300081a0033","linkReferences":{}},"methodIdentifiers":{"BUYER_DEPOSIT_MULTIPLIER()":"a111812c","CLAIM_WINDOW()":"9f34fc80","LISTING_FEE_BPS()":"d9ea227c","MAX_TRANSFER_DELAY()":"0d93457a","SUCCESS_FEE_BPS()":"8045b3bd","claimReservation(bytes32,(string,uint64,string,bytes32,uint256[8]))":"6f3fc771","createOrder(bytes32,uint64)":"43dd8894","escrow()":"e2fdcc17","executeCancellation(bytes32,(string,uint64,string,bytes32,uint256[8]))":"23560d0d","listReservation((string,string,string,uint64,uint8,bytes32,uint256[8]),uint256,uint64)":"3be01fb5","verifier()":"2b7ac3f3"},"id":26}