{"abi":[{"type":"function","name":"createListing","inputs":[{"name":"listingId","type":"bytes32","internalType":"bytes32"},{"name":"seller","type":"address","internalType":"address"},{"name":"reservationHash","type":"bytes32","internalType":"bytes32"},{"name":"price","type":"uint256","internalType":"uint256"},{"name":"escrowAmount","type":"uint256","internalType":"uint256"},{"name":"expiry","type":"uint64","internalType":"uint64"},{"name":"platform","type":"string","internalType":"string"}],"outputs":[],"stateMutability":"nonpayable"},{"type":"function","name":"createOrder","inputs":[{"name":"orderId","type":"bytes32","internalType":"bytes32"},{"name":"buyer","type":"address","internalType":"address"},{"name":"listingId","type":"bytes32","internalType":"bytes32"},{"name":"depositAmount","type":"uint256","internalType":"uint256"},{"name":"coordinationTime","type":"uint64","internalType":"uint64"},{"name":"claimDeadline","type":"uint64","internalType":"uint64"}],"outputs":[],"stateMutability":"nonpayable"},{"type":"function","name":"listings","inputs":[{"name":"","type":"bytes32","internalType":"bytes32"}],"outputs":[{"name":"seller","type":"address","internalType":"address"},{"name":"reservationHash","type":"bytes32","internalType":"bytes32"},{"name":"price","type":"uint256","internalType":"uint256"},{"name":"escrowAmount","type":"uint256","internalType":"uint256"},{"name":"expiry","type":"uint64","internalType":"uint64"},{"name":"status","type":"uint8","internalType":"enum ReservationEscrow.ListingStatus"},{"name":"platform","type":"string","internalType":"string"}],"stateMutability":"view"},{"type":"function","name":"orders","inputs":[{"name":"","type":"bytes32","internalType":"bytes32"}],"outputs":[{"name":"buyer","type":"address","internalType":"address"},{"name":"listingId","type":"bytes32","internalType":"bytes32"},{"name":"depositAmount","type":"uint256","internalType":"uint256"},{"name":"coordinationTime","type":"uint64","internalType":"uint64"},{"name":"claimDeadline","type":"uint64","internalType":"uint64"},{"name":"status","type":"uint8","internalType":"enum ReservationEscrow.OrderStatus"}],"stateMutability":"view"},{"type":"function","name":"platformVerifiers","inputs":[{"name":"","type":"string","internalType":"string"}],"outputs":[{"name":"","type":"address","internalType":"address"}],"stateMutability":"view"},{"type":"function","name":"updateListingStatus","inputs":[{"name":"listingId","type":"bytes32","internalType":"bytes32"},{"name":"status","type":"uint8","internalType":"enum ReservationEscrow.ListingStatus"}],"outputs":[],"stateMutability":"nonpayable"},{"type":"function","name":"updateOrderStatus","inputs":[{"name":"orderId","type":"bytes32","internalType":"bytes32"},{"name":"status","type":"uint8","internalType":"enum ReservationEscrow.OrderStatus"}],"outputs":[],"stateMutability":"nonpayable"},{"type":"event","name":"CoordinationBegun","inputs":[{"name":"orderId","type":"bytes32","indexed":true,"internalType":"bytes32"},{"name":"coordinationTime","type":"uint64","indexed":false,"internalType":"uint64"}],"anonymous":false},{"type":"event","name":"OrderCreated","inputs":[{"name":"orderId","type":"bytes32","indexed":true,"internalType":"bytes32"},{"name":"listingId","type":"bytes32","indexed":false,"internalType":"bytes32"},{"name":"buyer","type":"address","indexed":false,"internalType":"address"}],"anonymous":false},{"type":"event","name":"ReservationCancelled","inputs":[{"name":"orderId","type":"bytes32","indexed":true,"internalType":"bytes32"},{"name":"proofHash","type":"bytes32","indexed":false,"internalType":"bytes32"}],"anonymous":false},{"type":"event","name":"ReservationClaimed","inputs":[{"name":"orderId","type":"bytes32","indexed":true,"internalType":"bytes32"},{"name":"proofHash","type":"bytes32","indexed":false,"internalType":"bytes32"}],"anonymous":false},{"type":"event","name":"ReservationListed","inputs":[{"name":"listingId","type":"bytes32","indexed":true,"internalType":"bytes32"},{"name":"seller","type":"address","indexed":false,"internalType":"address"},{"name":"price","type":"uint256","indexed":false,"internalType":"uint256"}],"anonymous":false},{"type":"event","name":"SettlementCompleted","inputs":[{"name":"orderId","type":"bytes32","indexed":true,"internalType":"bytes32"},{"name":"outcome","type":"uint8","indexed":false,"internalType":"enum ReservationEscrow.SettlementType"}],"anonymous":false}],"bytecode":{"object":"0x608080604052346015576107c8908161001a8239f35b5f80fdfe60806040526004361015610011575f80fd5b5f3560e01c806312d35eed1461063a5780635a6c3a5a1461060357806361e5ed0f146105a35780638477aff31461047c5780639c3f1e90146103fe578063c18b8db4146102ba5763e59f746414610066575f80fd5b346102b65760e03660031901126102b65761007f6106e7565b6100876106fd565b60c4356001600160401b0381116102b6576100a6903690600401610692565b916040519060e082018281106001600160401b0382111761028e5760405260018060a01b03168152602081016044358152604082016064358152606083019060843582526001600160401b03608085019516855260a08401925f845260c085019687526004355f52600160205260405f209460018060a01b039060018060a01b03905116166bffffffffffffffffffffffff60a01b8654161785555160018501555160028401555160038301556001600160401b038060048401945116166001600160401b0319845416178355519160048310156102a25760059261018a9161076f565b0190519081516001600160401b03811161028e576101a88254610713565b601f8111610249575b50602092601f82116001146101ed57928192935f926101e2575b50505f19600383901b1c191660019190911b179055005b015190505f806101cb565b601f19821693835f52805f20915f5b8681106102315750836001959610610219575b505050811b019055005b01515f1960f88460031b161c191690555f808061020f565b919260206001819286850151815501940192016101fc565b825f5260205f20601f830160051c81019160208410610284575b601f0160051c01905b81811061027957506101b1565b5f815560010161026c565b9091508190610263565b634e487b7160e01b5f52604160045260245ffd5b634e487b7160e01b5f52602160045260245ffd5b5f80fd5b346102b65760203660031901126102b6576004355f52600160205260405f2060018060a01b0381541660018201549160028101549060038101546004820154600560ff8260401c16930191604051945f9784549461031786610713565b9081895260208901966001811690815f146103e157506001146103a7575b505061034f876001600160401b03969798999a0389610671565b60405198895260208901526040880152606087015216608085015260048210156102a25761010092849260a084015260e060c08401525180918160e08501528484015e5f828201840152601f01601f19168101030190f35b9099505f5260205f205f905b8a82106103cb57508701602001985061034f87610335565b6001816020925483858d010152019101906103b3565b60ff191688525050151560051b8701602001985061034f87610335565b346102b65760203660031901126102b6576004355f52600260205260405f2060018060a01b038154166001600160401b03600183015492600360028201549101549060ff8260801c169460405194855260208501526040840152818116606084015260401c16608082015260058210156102a25760c09160a0820152f35b346102b65760c03660031901126102b6576104956106e7565b608435906001600160401b0382168092036102b6576104b26106fd565b6040519160c083018381106001600160401b0382111761028e5760405260018060a01b031682526001600160401b03806003602085019460443586526040810160643581526060820197885283608083019616865260a0820196600188526004355f52600260205260405f209260018060a01b039060018060a01b03905116166bffffffffffffffffffffffff60a01b84541617835551600183015551600282015501945116166001600160401b03198454161783555167ffffffffffffffff60401b83549160401b169067ffffffffffffffff60401b19161782555160058110156102a2576105a19161074b565b005b346102b65760203660031901126102b6576004356001600160401b0381116102b6576105d56020913690600401610692565b8160405191805191829101835e5f90820190815281900382019020546040516001600160a01b039091168152f35b346102b65760403660031901126102b65760243560048110156102b6576105a1906004355f526001602052600460405f200161076f565b346102b65760403660031901126102b65760243560058110156102b6576105a1906004355f526002602052600360405f200161074b565b90601f801991011681019081106001600160401b0382111761028e57604052565b81601f820112156102b6578035906001600160401b03821161028e57604051926106c6601f8401601f191660200185610671565b828452602083830101116102b657815f926020809301838601378301015290565b602435906001600160a01b03821682036102b657565b60a435906001600160401b03821682036102b657565b90600182811c92168015610741575b602083101461072d57565b634e487b7160e01b5f52602260045260245ffd5b91607f1691610722565b9060058110156102a257815460ff60801b191660809190911b60ff60801b16179055565b9060048110156102a25760ff60401b82549160401b169060ff60401b191617905556fea2646970667358221220702fbc0f81876f979b4aa00b5f9a40b39d031fcae284dfdb622252ab35987b9564736f6c634300081a0033","linkReferences":{}},"methodIdentifiers":{"createListing(bytes32,address,bytes32,uint256,uint256,uint64,string)":"e59f7464","createOrder(bytes32,address,bytes32,uint256,uint64,uint64)":"8477aff3","listings(bytes32)":"c18b8db4","orders(bytes32)":"9c3f1e90","platformVerifiers(string)":"61e5ed0f","updateListingStatus(bytes32,uint8)":"5a6c3a5a","updateOrderStatus(bytes32,uint8)":"12d35eed"},"id":25}