{"abi":[{"type":"function","name":"patternVerifiers","inputs":[{"name":"","type":"string","internalType":"string"}],"outputs":[{"name":"","type":"address","internalType":"address"}],"stateMutability":"view"},{"type":"function","name":"verifyBooking","inputs":[{"name":"proof","type":"tuple","internalType":"struct ReservationVerifier.BookingProof","components":[{"name":"newReservationId","type":"string","internalType":"string"},{"name":"bookingTime","type":"uint64","internalType":"uint64"},{"name":"restaurantName","type":"string","internalType":"string"},{"name":"emailHash","type":"bytes32","internalType":"bytes32"},{"name":"proof","type":"uint256[8]","internalType":"uint256[8]"}]}],"outputs":[{"name":"","type":"bool","internalType":"bool"}],"stateMutability":"view"},{"type":"function","name":"verifyCancellation","inputs":[{"name":"proof","type":"tuple","internalType":"struct ReservationVerifier.CancellationProof","components":[{"name":"originalReservationId","type":"string","internalType":"string"},{"name":"cancellationTime","type":"uint64","internalType":"uint64"},{"name":"restaurantName","type":"string","internalType":"string"},{"name":"emailHash","type":"bytes32","internalType":"bytes32"},{"name":"proof","type":"uint256[8]","internalType":"uint256[8]"}]}],"outputs":[{"name":"","type":"bool","internalType":"bool"}],"stateMutability":"view"},{"type":"function","name":"verifyCoordinatedTransfer","inputs":[{"name":"cancelProof","type":"tuple","internalType":"struct ReservationVerifier.CancellationProof","components":[{"name":"originalReservationId","type":"string","internalType":"string"},{"name":"cancellationTime","type":"uint64","internalType":"uint64"},{"name":"restaurantName","type":"string","internalType":"string"},{"name":"emailHash","type":"bytes32","internalType":"bytes32"},{"name":"proof","type":"uint256[8]","internalType":"uint256[8]"}]},{"name":"bookingProof","type":"tuple","internalType":"struct ReservationVerifier.BookingProof","components":[{"name":"newReservationId","type":"string","internalType":"string"},{"name":"bookingTime","type":"uint64","internalType":"uint64"},{"name":"restaurantName","type":"string","internalType":"string"},{"name":"emailHash","type":"bytes32","internalType":"bytes32"},{"name":"proof","type":"uint256[8]","internalType":"uint256[8]"}]},{"name":"maxTimeDiff","type":"uint64","internalType":"uint64"}],"outputs":[{"name":"","type":"bool","internalType":"bool"}],"stateMutability":"view"},{"type":"function","name":"verifyReservationOwnership","inputs":[{"name":"proof","type":"tuple","internalType":"struct ReservationVerifier.ReservationProof","components":[{"name":"platform","type":"string","internalType":"string"},{"name":"reservationId","type":"string","internalType":"string"},{"name":"restaurantName","type":"string","internalType":"string"},{"name":"reservationTime","type":"uint64","internalType":"uint64"},{"name":"partySize","type":"uint8","internalType":"uint8"},{"name":"emailHash","type":"bytes32","internalType":"bytes32"},{"name":"proof","type":"uint256[8]","internalType":"uint256[8]"}]}],"outputs":[{"name":"","type":"bool","internalType":"bool"}],"stateMutability":"view"}],"bytecode":{"object":"0x60808060405234601557610732908161001a8239f35b5f80fdfe60806040526004361015610011575f80fd5b5f3560e01c8063017d4bfb146104555780630bfc006d146103e4578063763a3c67146103c2578063a07198c01461029b5763d76e643f14610050575f80fd5b34610297576060366003190112610297576004356001600160401b038111610297578060040190610180600319823603011261029757602435916001600160401b03831161029757826004016101806003198536030112610297576044356001600160401b038116809103610297576100c883610533565b1561025b576100d682610605565b156102245760248501906100e9826106e8565b9060248601916001600160401b0380610101856106e8565b169116101592836101cb575b5050501561019557604461013461012d61012d94836101439701906106b6565b36916104d6565b602081519101209401906106b6565b602081519101200361015a57602060405160018152f35b60405162461bcd60e51b81526020600482015260136024820152720a4cae6e8c2eae4c2dce840dad2e6dac2e8c6d606b1b6044820152606490fd5b60405162461bcd60e51b815260206004820152600e60248201526d496e76616c69642074696d696e6760901b6044820152606490fd5b6001600160401b03919293506101e36101e9916106e8565b936106e8565b16016001600160401b038111610210576001600160401b03809116911611155f808061010d565b634e487b7160e01b5f52601160045260245ffd5b60405162461bcd60e51b815260206004820152600f60248201526e496e76616c696420626f6f6b696e6760881b6044820152606490fd5b60405162461bcd60e51b815260206004820152601460248201527324b73b30b634b21031b0b731b2b63630ba34b7b760611b6044820152606490fd5b5f80fd5b34610297576020366003190112610297576004356001600160401b03811161029757806004016101c0600319833603011261029757806102da916106b6565b806040519283375f9082019081528190036020019020546001600160a01b031680156103845760405163707880db60e01b815260a483013560048201529160209183916101249183916101009060c40160248401375afa8015610379576020915f9161034c575b506040519015158152f35b61036c9150823d8411610372575b61036481836104a1565b81019061051b565b82610341565b503d61035a565b6040513d5f823e3d90fd5b60405162461bcd60e51b8152602060048201526016602482015275141b185d199bdc9b481b9bdd081cdd5c1c1bdc9d195960521b6044820152606490fd5b346102975760206103da6103d53661046d565b610605565b6040519015158152f35b34610297576020366003190112610297576004356001600160401b03811161029757366023820112156102975761042760209136906024816004013591016104d6565b8160405191805191829101835e5f90820190815281900382019020546040516001600160a01b039091168152f35b346102975760206103da6104683661046d565b610533565b602060031982011261029757600435906001600160401b038211610297576101809082900360031901126102975760040190565b90601f801991011681019081106001600160401b038211176104c257604052565b634e487b7160e01b5f52604160045260245ffd5b9291926001600160401b0382116104c257604051916104ff601f8201601f1916602001846104a1565b829481845281830111610297578281602093845f960137010152565b90816020910312610297575180151581036102975790565b6040516b31b0b731b2b63630ba34b7b760a11b81525f600c820152602c9020546001600160a01b031680156105c05760405163707880db60e01b8152606083013560048201529160209183916101249183916101009060800160248401375afa908115610379575f916105a4575090565b6105bd915060203d6020116103725761036481836104a1565b90565b60405162461bcd60e51b815260206004820152601d60248201527f43616e63656c6c6174696f6e207665726966696572206e6f74207365740000006044820152606490fd5b60405166626f6f6b696e6760c81b81525f600782015260279020546001600160a01b031680156106715760405163707880db60e01b8152606083013560048201529160209183916101249183916101009060800160248401375afa908115610379575f916105a4575090565b60405162461bcd60e51b815260206004820152601860248201527f426f6f6b696e67207665726966696572206e6f742073657400000000000000006044820152606490fd5b903590601e198136030182121561029757018035906001600160401b0382116102975760200191813603831361029757565b356001600160401b0381168103610297579056fea2646970667358221220765916cac040fdb43934ac5d824ca0446965048ebafb866523c7dbeed743635d64736f6c634300081a0033","linkReferences":{}},"methodIdentifiers":{"patternVerifiers(string)":"0bfc006d","verifyBooking((string,uint64,string,bytes32,uint256[8]))":"763a3c67","verifyCancellation((string,uint64,string,bytes32,uint256[8]))":"017d4bfb","verifyCoordinatedTransfer((string,uint64,string,bytes32,uint256[8]),(string,uint64,string,bytes32,uint256[8]),uint64)":"d76e643f","verifyReservationOwnership((string,string,string,uint64,uint8,bytes32,uint256[8]))":"a07198c0"},"id":27}